:10095F00FC60DAF266B6BEE0FEF6EE3E9C7A9E8E44
:10080000E4F508F51112096FE511FB7A007C277DEC
:1008100010FF7E001208E17E037FE8CFCDCFCECC63
:10082000CE1208E1745F2FF58274093EF583E493DC
:10083000F5097C037DE8AF037E001208E17E007FAE
:1008400064CFCDCFCECCCE1208E1745F2FF5827489
:10085000093EF583E493F50AE51175F06484E5F04B
:1008600075F00A8490095F93F50BE51175F00A8421
:10087000E5F093F50CE4F50874092508F8E6F58031
:10088000E50814601214601714601C2403701EC263
:10089000A4C2A3C2A28016C2A4C2A3D2A2800EC2C6
:1008A000A4D2A3C2A28006C2A4D2A3D2A27F027EF7
:1008B000001209360508E508C3940440BBC3E513DC
:1008C0009414E51294005003020808E4F512F5139D
:1008D0000511E511640A600302080875E7200208A3
:0108E000080F
:0F096F00758901758C3C758AB075A882D28C226F
:10093600EF1FAA0670011E4A600BE4FDEDC3946E1C
:0509460050EE0D80F7EA
:01094B002289
:03000B0002094C9B
:10094C00C0E0758C3C758AB00513E5137002051276
:03095C00D0E032B6
:0300000002097E74
:0C097E00787FE4F6D8FD758113020800B4
:1008E100BC000BBE0029EF8DF084FFADF022E4CCFB
:1008F100F875F008EF2FFFEE33FEEC33FCEE9DECC4
:10090100984005FCEE9DFE0FD5F0E9E4CEFD22ED09
:10091100F8F5F0EE8420D21CFEADF075F008EF2F53
:10092100FFED33FD4007985006D5F0F222C398FD44
:050931000FD5F0EA22E1
:00000001FF
