:1003B60020202054656D7065726174757265202009
:0103C6000036
:10011E00E4F508F509F50A1203C7120313E4F5080E
:10012E00FF1203FBE5089003B693600CAF080508B9
:10013E00EF93FF12038880EC1203E37832E6FA089D
:10014E00E6FB7C007D64FFAE0212018D7E007F0A0D
:10015E00CFCDCFCECCCE12018DEF2430F5097C0061
:10016E007D0AAF03AE0212018DED2430F50A7F47F2
:0F017E001203FBAF09120388AF0A12038880B97E
:0F03C700438910758DD8758BF075A888D28E225A
:04036E007F017E008D
:10037200EF1FAA0670011E4A600BE4FDEDC3946EE6
:0503820050EE0D80F7B4
:010387002253
:03001B00020003DD
:10000300C0D075D000C000758DD8758BF0783506DB
:05001300D000D0D03246
:1003A200C2A6D2A5D2A700000000E580339201C206
:0303B200A7A201FE
:0103B5002225
:100352001203A240FBC2A6C2A5C2A700008F800062
:0C036200000000D2A700000000C2A7228B
:0703FB00EF4480FF020352F2
:100388001203A240FBD2A6C2A5C2A78F800000001C
:0A03980000D2A700000000C2A72257
:100313007F3812035212036E7F0C12035212036EC4
:100323007F0612035212036E7F011203527E0002F4
:02033300037253
:10001E00005EBCE2613FDD83C29C7E20A3FD1F41DA
:10002E009DC3217FFCA2401E5F01E3BD3E6082DCCA
:10003E00237D9FC1421CFEA0E1BF5D0380DE3C62BA
:10004E00BEE0025CDF81633D7C22C09E1D43A1FFAA
:10005E004618FAA427799BC584DA3866E5BB59079A
:10006E00DB856739BAE406581947A5FB7826C49A8A
:10007E00653BD987045AB8E6A7F91B45C6987A247A
:10008E00F8A6441A99C7257B3A6486D85B05E7B96A
:10009E008CD2306EEDB3510F4E10F2AC2F7193CD5A
:1000AE00114FADF3702ECC92D38D6F31B2EC0E504A
:1000BE00AFF1134DCE90722C6D33D18F0C52B0EE3A
:1000CE00326C8ED0530DEFB1F0AE4C1291CF2D732A
:1000DE00CA947628ABF517490856B4EA6937D58B1A
:1000EE005709EBB536688AD495CB2977F4AA48160A
:1000FE00E9B7550B88D6346A2B7597C94A14F6A8FA
:10010E00742AC896154BA9F7B6E80A54D7896B35E9
:1002A100D2B700C2B77F5012040200D2B77F0E123C
:1002B100040200000020B704D2008002C2007F14B3
:0802C1001204020000D2B72272
:0202C9008F0B99
:1002CB00E4780DF6C2B700E50B1392B77F03120467
:1002DB00020000D2B7E50BC313F50B780D06E6C38E
:0402EB00940840E053
:0102EF0022EC
:10024D00E4780FF618F6C2B7780FE6C313F6D2B7F7
:10025D0030B704E64480F67F0212040200780E06E1
:0A026D00E6C3940840E0780FE6FFB6
:010277002264
:020335008F0B2C
:10033700E4780DF6780DE6C3950B500E12024DA822
:0A0347000CA607050C780D0680EAED
:010351002289
:1002F000E4780EF618F6780DE6FEC39F50107429C8
:100300002EF908E66790001E93F6180680E8780E2E
:02031000E6FF06
:0103120022C8
:100218007F091203357F091202F0EF7027782AE66A
:10022800FE18E67C0024007833F6EC3E18F67932A6
:10023800E7C4F854F0C868F709E7C4540F48F77FD3
:05024800011204022276
:1001E2001202A17FCC1202C97F4E1202C97F1912DC
:1001F20002C97F1A1202C97F7F1202C91202A17FAD
:10020200CC1202C97F481202C91202A17FCC12028B
:06021200C97FB80202C919
:0D03D6001202A17F331202C97F0802033515
:10027800750C211203D61201E21202A17FCC1202E0
:10028800C97F441202C91202A17FCC1202C97FBEE3
:090298001202C9750C29020218BA
:0C03E3007835E6B46405E4F612027822D6
:07040200AE071FEE70FA22A5
:030000000203EF09
:0C03EF00787FE4F6D8FD75813502011E10
:10018D00BC000BBE0029EF8DF084FFADF022E4CC56
:10019D00F875F008EF2FFFEE33FEEC33FCEE9DEC1F
:1001AD00984005FCEE9DFE0FD5F0E9E4CEFD22ED65
:1001BD00F8F5F0EE8420D21CFEADF075F008EF2FAF
:1001CD00FFED33FD4007985006D5F0F222C398FDA0
:0501DD000FD5F0EA223D
:00000001FF
