:10088200FC60DAF266B6BEE0FEF6EE3E9C7A9E8E22
:05089E0012080080FBC0
:10086D00EF1F70011E144E600BE4FDEDC3946E502E
:04087D00EF0D80F704
:010881002254
:10080000E4FC75A0FFECB40800504D900812F828E5
:10081000287302082A02082E02083202083602084B
:100820003A02084202084A020852C2A4800EC2A438
:100830008012C2A48016C2A4801AD2A4C2A3C2A2EB
:100840008016D2A4C2A3D2A2800ED2A4D2A3C2A2E6
:100850008006D2A4D2A3D2A2EC90088293F5807F26
:0C086000027E0012086D0CEC6408709918
:01086C002269
:0300000002089261
:0C089200787FE4F6D8FD75810702089E0F
:00000001FF
