:0B106600120E8D121057120FBF80FBFE
:100FF100EF1FAA0670011E4A600BE4FDEDC3946E5B
:0510010050EE0D80F728
:0110060022C7
:100F6A00011D00011B14011C0D011502011A0F01BC
:0B0F7A00160501180C011900011700FA
:10103200C2A6D2A5D2A700000000E580339201C269
:03104200A7A20161
:011045002288
:100F890012103240FBC2A6C2A5C2A700008F800082
:0C0F9900000000D2A700000000C2A72248
:07107100EF4480FF020F892C
:100FA50012103240FBD2A6C2A5C2A78F8000000056
:0A0FB50000D2A700000000C2A7222E
:100E8D00E4F50E7F38120F897F017E00120FF17F7E
:100E9D000C120F897F017E00120FF17F06120F8950
:100EAD007F017E00120FF17F01120F897F0A7E00F4
:090EBD00120FF1120C99020DD183
:100D19007F0F120F897F017E00120FF1051DE51D5E
:100D2900C394084003751D01E51D14B40700504024
:100D3900900D4775F003A4C58325F0C58373020D93
:100D49005C020D60020D64020D68020D6C020D70EB
:100D5900020D747F0480167F0780127F0A800E7F40
:100D69000E800A7F4280067F4580027F48121071FB
:010D79002257
:10093700E51D14B4070040030209F890095075F04B
:1009470003A4C58325F0C5837302096502097E02E6
:1009570009920209A60209BB0209CF0209E3051C95
:10096700C3E51C648094E44008E4F51C051B120FE2
:100977001EAD1C7F0380770515C3E5156480948D34
:100987004003751501AD157F068063051AC3E51A87
:10099700648094A04003751A01AD1A7F09804F0542
:1009A70016C3E516648094884003751601AF1612C6
:1009B7000B7B803D0518C3E518648094984003E4D9
:1009C700F518AD187F4180260519C3E51964809491
:1009D700BC4003E4F519AD197F4480120517C3E540
:1009E70017648094BC4003E4F517AD177F47120FD7
:0609F700227F10020F89AF
:10101D00E4F51D7F0C120F897F017E00120FF11276
:05102D000AC3D28C2271
:1009FD00E51D14B407004003020ABE900A1675F0F7
:100A0D0003A4C58325F0C58373020A2B020A440291
:100A1D000A58020A6C020A81020A95020AA9151CDB
:100A2D00C3E51C648094805008751C63151B120F60
:100A3D001EAD1C7F0380771515C3E5156480948169
:100A4D00500375150CAD157F068063151AC3E51A95
:100A5D00648094815003751A1FAD1A7F09804F155C
:100A6D0016C3E516648094815003751607AF1612F0
:100A7D000B7B803D1518C3E5186480948050037579
:100A8D001817AD187F4180261519C3E51964809498
:100A9D0080500375193BAD197F4480121517C3E5BE
:100AAD001764809480500375173BAD177F47120F65
:060ABD00227F10020F89E8
:040F1E00AD1B7F0187
:020F2200AE051A
:100F2400E4F50FFC121071EE75F00A84E5F024303C
:100F3400FCEE75F00A842430FEFF120FA5AF040204
:020F44000FA5F7
:100B7B00AE077F0C121071EE14B407004003020C89
:100B8B000C900B9A75F003A4C58325F0C5837302F3
:100B9B000BAF020BB8020BC6020BD3020BE1020B1D
:100BAB00EF020BFD7F4D120FA57F6F80157F541247
:100BBB000FA57F75120FA57F6580437F57120FA579
:100BCB007F65120FA51F80367F54120FA57F681209
:100BDB000FA57F7580287F46120FA57F72120FA578
:100BEB007F69801A7F53120FA57F61120FA57F7447
:100BFB00800C7F53120FA57F75120FA57F6E120FFE
:020C0B00A52220
:100DD100120F1EAD1C7F03120F227F2D120FA5AD26
:100DE100157F06120F227F2D120FA5AD1A7F091252
:100DF1000F22AF16120B7BAD187F41120F227F3AE3
:100E0100120FA5AD197F44120F227F3A120FA5AD23
:060E1100177F47020F22CB
:100FBF007590FFE590F460117F057E00120FF1E54B
:0A0FCF0090F46005C28C120EC622D9
:100EC600E590B4FE063090FD020D19E590B4FD06DE
:100ED6003091FD020937E590B4EF063094FD02101B
:0D0EE6001DE590B4DF063095FD1209FD22D8
:10100700D2A000D2A10000000000C2A00000000092
:0610170000C2A10000224E
:10104600C2A000D2A10000000000D2A00000000053
:011056002277
:100E1700E4FEEFA806088002C333D8FC30E704D20B
:100E2700A08002C2A000D2A10000000000C2A10E53
:100E3700BE08DF0000D2A00000D2A100000030A051
:0B0E470004C2028002D202C2A100001F
:010E5200227D
:100F4600E4FFD2A0FE00C2A10000000000D2A10072
:100F560000EF25E0FF30A0010F00000EBE08E6C23C
:030F6600A10000E7
:010F69002265
:100FD900200104C2A08002D2A0000000D2A100001A
:080FE900000000C2A10000227B
:020E5300AE07E8
:100E5500121007120E17200202C322AF05120E1739
:100E6500200202C322E4FDEDC395135016120EF3C2
:100E7500FF120E17200202C322740129F9E43AFA7F
:070E85000D80E4121046D3BA
:010E8C002243
:020D7A00AC07C4
:100D7C00121007120E17200202C322AF05120E1713
:100D8C00200202C322121007EC04FF120E172002DD
:100D9C0002C322E4FDE51414FFEDC39F5016120F9D
:100DAC0046EF120F0CC201120FD9740129F9E43A63
:100DBC00FA0D80E1120F46EF120F0CD201120FD96F
:040DCC00121046D3E8
:010DD0002200
:030F8500011E004A
:100C99007B007A00791B751401E4FD7FA0120D7A9F
:100CA9007B007A00791C7514017D017FA0120D7AF1
:100CB9007B007A0079157514017D027FA0120D7AE7
:100CC9007B007A00791A7514017D037FA0120D7AD1
:100CD9007B007A0079167514017D047FA0120D7AC4
:100CE9007B007A0079187514017D057FA0120D7AB1
:100CF9007B007A0079197514017D067FA0120D7A9F
:100D09007B007A0079177514017D077FA0020D7A9F
:100AC3007B007A00791B751301E4FD7FA0120E539E
:100AD3007F027E00120FF17B007A00791C751301EF
:100AE3007D017FA0120E537F027E00120FF17B0067
:100AF3007A0079157513017D027FA0120E537F02D0
:100B03007E00120FF17B007A00791A7513017D03C1
:100B13007FA0120E537F027E00120FF17B007A003A
:100B230079167513017D047FA0120E537F027E0098
:100B3300120FF17B007A0079187513017D057FA0F0
:100B4300120E537F027E00120FF17B007A00791997
:100B53007513017D067FA0120E537F027E00120FD4
:100B6300F17B007A0079177513017D077FA0120EC0
:080B7300537F027E00020FF126
:0F105700758901758C3C758AB075A882D28C2280
:03000B00020800E8
:10080000C0E0C0F0C083C082C0D075D000C000C0BE
:0D08100001C002C003C004C005C006C0073F
:10081D00758C3C758AB0051EE51EC39414500302F9
:10082D00091C751E000517E517648094BC50030262
:10083D0009097517000519E519648094BC50030268
:10084D0008F97519000518E518648094985003028D
:10085D0008E9751800051AE51A648094A0404F75D3
:10086D001A010515E5156480948D40327515010545
:10087D001BE51B648094E44015751B00051C7B0073
:10088D007A00791C7513017D017FA0120E537B0038
:10089D007A00791B751301E4FD7FA0120E537B00C6
:1008AD007A0079157513017D027FA0120E5305167E
:1008BD00C3E5166480948840037516017B007A00A9
:1008CD0079167513017D047FA0120E537B007A00FB
:1008DD00791A7513017D037FA0120E537B007A00E8
:1008ED0079187513017D057FA0120E537B007A00D8
:1008FD0079197513017D067FA0120E537B007A00C6
:0F090D0079177513017D077FA0120E53120DD1BC
:10091C00D007D006D005D004D003D002D001D0002F
:0B092C00D0D0D082D083D0F0D0E032D9
:03000000020C0DE2
:0C0C0D00787FE4F6D8FD758120020C54BD
:100EF300BB010689828A83E0225002E722BBFE02FD
:090F0300E32289828A83E493222F
:100F0C00BB010689828A83F0225002F722BBFE01C4
:020F1C00F322BE
:100C1900021066E493A3F8E493A34003F68001F27B
:100C290008DFF48029E493A3F85407240CC8C333DC
:100C3900C4540F4420C8834004F456800146F6DFAB
:100C4900E4800B0102040810204080900F6AE47EC2
:100C5900019360BCA3FF543F30E509541FFEE493A0
:100C6900A360010ECF54C025E060A840B8E493A367
:100C7900FAE493A3F8E493A3C8C582C8CAC583CA92
:100C8900F0A3C8C582C8CAC583CADFE9DEE780BE4A
:010F88000068
:00000001FF
