:0B08C7000908492067657420582100D3
:10088C00E4F5111208B13098FDC29885990EE4F583
:10089C001174082511F8E6FF60ECF5993099FDC24A
:0508AC0099051180EC2C
:1008B100759850438920438780758DF3758BF3D2EA
:0608C1008ED2ACD2AF2282
:03000000020800F3
:0C080000787FE4F6D8FD758111020847EE
:10080C0002088CE493A3F8E493A34003F68001F26E
:10081C0008DFF48029E493A3F85407240CC8C333ED
:10082C00C4540F4420C8834004F456800146F6DFBC
:10083C00E4800B01020408102040809008C7E47E7D
:10084C00019360BCA3FF543F30E509541FFEE493B1
:10085C00A360010ECF54C025E060A840B8E493A378
:10086C00FAE493A3F8E493A3C8C582C8CAC583CAA3
:10087C00F0A3C8C582C8CAC583CADFE9DEE780BE5B
:0108D2000025
:00000001FF
