:1003B900FC60DAF266B6BEE0FEF6EE3E9C7A9E8EF0
:10011E001203C91203E57832E6FA08E6FB7C277D66
:10012E0010FFAE021202017E037FE8CFCDCFCECC00
:10013E00CE12020174B92FF58274033EF583E49357
:10014E00F5087C037DE8AF03AE021202017E007F4C
:10015E0064CFCDCFCECCCE12020174B92FF58274FE
:10016E00033EF583E493F5097832E6FA08E6FB7C64
:10017E00007D64FFAE021202017E007F0ACFCDCF5A
:10018E00CECCCE12020174B92FF58274033EF583E4
:10019E00E493F50A7C007D0AAF03AE0212020174ED
:1001AE00B92DF58274033CF583E493F50BE4F50F5A
:1001BE007408250FF8E6F580E50F14600E14601331
:1001CE0014601424037016C2A28002D2A2C2A3C26B
:1001DE00A4800AC2A28002D2A2D2A3C2A47F027EAF
:1001EE0000120003050FE50FC3940440C3E4F5802D
:0301FE00020121DA
:0F03C900438910758DD8758BF075A888D28E2258
:10000300EF1FAA0670011E4A600BE4FDEDC3946E58
:0500130050EE0D80F726
:0100180022C5
:03001B000203A439
:1003A400C0D075D000C000758DD8758BF078350637
:0503B400D000D0D032A2
:10001E00005EBCE2613FDD83C29C7E20A3FD1F41DA
:10002E009DC3217FFCA2401E5F01E3BD3E6082DCCA
:10003E00237D9FC1421CFEA0E1BF5D0380DE3C62BA
:10004E00BEE0025CDF81633D7C22C09E1D43A1FFAA
:10005E004618FAA427799BC584DA3866E5BB59079A
:10006E00DB856739BAE406581947A5FB7826C49A8A
:10007E00653BD987045AB8E6A7F91B45C6987A247A
:10008E00F8A6441A99C7257B3A6486D85B05E7B96A
:10009E008CD2306EEDB3510F4E10F2AC2F7193CD5A
:1000AE00114FADF3702ECC92D38D6F31B2EC0E504A
:1000BE00AFF1134DCE90722C6D33D18F0C52B0EE3A
:1000CE00326C8ED0530DEFB1F0AE4C1291CF2D732A
:1000DE00CA947628ABF517490856B4EA6937D58B1A
:1000EE005709EBB536688AD495CB2977F4AA48160A
:1000FE00E9B7550B88D6346A2B7597C94A14F6A8FA
:10010E00742AC896154BA9F7B6E80A54D7896B35E9
:10031500D2B700C2B77F501203FD00D2B77F0E12CD
:1003250003FD00000020B704D2008002C2007F1444
:080335001203FD0000D2B72203
:02033D008F101F
:10033F00E47812F6C2B700E5101392B77F031203E9
:10034F00FD0000D2B7E510C313F510781206E6C30F
:04035F00940840E0DE
:010363002277
:1002C100E47814F618F6C2B77814E6C313F6D2B779
:1002D10030B704E64480F67F021203FD007813066E
:0A02E100E6C3940840E07814E6FF3D
:0102EB0022F0
:020387008F10D5
:10038900E47812F67812E6C39510500E1202C1A84D
:0A03990011A607051178120680EA8C
:0103A3002237
:10036400E47813F618F67812E6FEC39F5010742949
:100374002EF908E66790001E93F6180680E87813B5
:02038400E6FF92
:010386002254
:10028C007F091203877F09120364EF7027782AE62F
:10029C00FE18E67C0024007833F6EC3E18F6793232
:1002AC00E7C4F854F0C868F709E7C4540F48F77F5F
:0502BC00011203FD2208
:100256001203157FCC12033D7F4E12033D7F191208
:10026600033D7F1A12033D7F7F12033D1203157F64
:10027600CC12033D7F4812033D1203157FCC1203B7
:060286003D7FB802033DBC
:0D03D8001203157F3312033D7F08020387D7
:1002EC007511211203D81202561203157FCC12037A
:1002FC003D7F4412033D1203157FCC12033D7FBE9C
:09030C0012033D75112902028C57
:0C03E5007835E6B46405E4F61202EC2260
:0703FD00AE071FEE70FA22AB
:030000000203F107
:0C03F100787FE4F6D8FD75813502011E0E
:10020100BC000BBE0029EF8DF084FFADF022E4CCE1
:10021100F875F008EF2FFFEE33FEEC33FCEE9DECAA
:10022100984005FCEE9DFE0FD5F0E9E4CEFD22EDF0
:10023100F8F5F0EE8420D21CFEADF075F008EF2F3A
:10024100FFED33FD4007985006D5F0F222C398FD2B
:050251000FD5F0EA22C8
:00000001FF
