:1008590020202057454C434F4D452020544F202000
:100869002000205757572E5052454348494E2E4392
:040879004F4D2000BF
:10080000E4F50812087D7F0A7E001208D9E4FF1281
:10081000090EE4F508E50890085993FF600E1208E8
:10082000BB05087F327E001208D980E97F4012099B
:100830000EE4F508E50890086B93FF600E1208BB04
:1008400005087F327E001208D980E97F887E131266
:0908500008D97F0112089F80B451
:1008EE00C2A6D2A5D2A700000000E580339200C2B6
:0308FE00A7A200AE
:0109010022D3
:10089F001208EE40FBC2A6C2A5C2A700008F8000BF
:0C08AF00000000D2A700000000C2A72239
:07090E00EF4480FF02089F87
:1008BB001208EE40FBD2A6C2A5C2A78F8000000093
:0A08CB0000D2A700000000C2A7221F
:10087D007F3812089F1208D57F0C12089F1208D5D9
:10088D007F0612089F1208D57F0112089F7E000275
:02089D0008D978
:0408D5007F017E0021
:1008D900EF1F70011E144E600BE4FDEDC3946E50C2
:0408E900EF0D80F798
:0108ED0022E8
:03000000020902F0
:0C090200787FE4F6D8FD75812002080023
:00000001FF
