:100C1E00FC60DAF266B6BEE0FEF6EE3E9C7A9E8E82
:10080000E4F5087D407F90120BAA7F90120B88754B
:1008100011008F127D417F90120BAA7F90120B88DE
:10082000AB077A00AE11AF127C277D101209E07E73
:10083000037FE8CFCDCFCECCCE1209E0741E2FF5CA
:1008400082740C3EF583E493F509AE11AF127C037C
:100850007DE81209E07E007F64CFCDCFCECCCE12F2
:1008600009E0741E2FF582740C3EF583E493F50ABB
:10087000AE11AF127C007D641209E07E007F0ACFCA
:10088000CDCFCECCCE1209E0741E2FF582740C3E73
:10089000F583E493F50BAE11AF127C007D0A1209CB
:1008A000E0741E2DF582740C3CF583E493F50C7C0A
:1008B000277D10AF037E001209E07E037FE8CFCDD5
:1008C000CFCECCCE1209E0741E2FF582740C3EF50B
:1008D00083E493F50D7C037DE8AF037E001209E00D
:1008E0007E007F64CFCDCFCECCCE1209E0741E2F18
:1008F000F582740C3EF583E493F50E7C007D64AFC5
:10090000037E001209E07E007F0ACFCDCFCECCCE91
:100910001209E0741E2FF582740C3EF583E493F502
:100920000F7E00AF037C007D0A1209E0741E2DF5D6
:1009300082740C3CF583E493F510E4F50874092502
:1009400008F8E6F580E508B40800504D900953F822
:1009500028287302096B02096F02097302097702E2
:10096000097B02098302098B020993C2A4800EC28B
:10097000A48012C2A48016C2A4801AD2A4C2A3C2A8
:10098000A28016D2A4C2A3D2A2800ED2A4D2A3C2A5
:10099000A28006D2A4D2A3D2A27F027E00120BF8BC
:1009A0000508E508C394084094AB127D407F90127F
:0509B0000B38020803F2
:100B38008F138D148B15120BE2AF13120AC220000B
:100B480002C322AF14120AC2200002C322AF151238
:0C0B58000AC2200002C322120C0DD3229E
:100BAA008F138D14120BE2AF13120AC2200002C374
:100BBA0022AF14120AC2200002C322120C0DD32241
:020B88008F13C9
:100B8A00120BE2E51304FF120AC22000037F0022BF
:0F0B9A00120B648F14D201120BCA120C0DAF1480
:010BA9002229
:100BF800EF1F70011E144E600BE4FDEDC3946E50A0
:040C0800EF0D80F775
:010C0C0022C5
:100BE200D2A000D2A10000000000C2A000000000BC
:060BF20000C2A100002278
:100C0D00C2A000D2A10000000000D2A00000000090
:010C1D0022B4
:100AC200E4FEEFA806088002C333D8FC30E704D264
:100AD200A08002C2A000D2A10000000000C2A10EAC
:100AE200BE08DF0000D2A00000D2A100000030A0AA
:0B0AF20004C2008002D200C2A100007C
:010AFD0022D6
:100B6400E4FFD2A0FE00C2A10000000000D2A10058
:100B740000EF25E0FF30A0010F00000EBE08E6C222
:030B8400A10000CD
:010B8700224B
:100BCA00200104C2A08002D2A0000000D2A100002D
:080BDA00000000C2A10000228E
:020AFE00AE0741
:100B0000120BE2120AC2200002C322AF05120AC26F
:100B1000200002C322E4FDEDC3951B50161209B557
:100B2000FF120AC2200002C322740129F9E43AFA32
:070B30000D80E4120C0DD34F
:010B3700229B
:020A6B00AC07D6
:100A6D00120BE2120AC2200002C322AF05120AC203
:100A7D00200002C322120BE2EC04FF120AC2200076
:100A8D0002C322E4FDE52614FFEDC39F5016120BA1
:100A9D0064EF1209CEC201120BCA740129F9E43AAE
:100AAD00FA0D80E1120B64EF1209CED201120BCABE
:040ABD00120C0DD337
:010AC1002212
:03000000020C2EC1
:0C0C2E00787FE4F6D8FD758126020800EE
:1009B500BB010689828A83E0225002E722BBFE0240
:0909C500E32289828A83E4932273
:1009CE00BB010689828A83F0225002F722BBFE0108
:0209DE00F32202
:1009E000C2D5EC30E709B2D5E4C39DFDE49CFCEE32
:1009F00030E715B2D5E4C39FFFE49EFE120A16C38A
:100A0000E49DFDE49CFC8003120A1630D507C3E484
:060A10009FFFE49EFE22A0
:100A1600BC000BBE0029EF8DF084FFADF022E4CCC4
:100A2600F875F008EF2FFFEE33FEEC33FCEE9DEC8D
:100A3600984005FCEE9DFE0FD5F0E9E4CEFD22EDD3
:100A4600F8F5F0EE8420D21CFEADF075F008EF2F1D
:100A5600FFED33FD4007985006D5F0F222C398FD0E
:050A66000FD5F0EA22AB
:00000001FF
