:10080000E4F508F50975A0FFD2941208628F20A2C2
:1008100000E433550960036308FFA200B3E433F535
:1008200009E5086005C29475A07FA201B350037565
:10083000A0FDA202B3500375A0FBA203B350037541
:10084000A0F7A204B3500375A0EFA205B35003753F
:10085000A0DF20060375A0BFA207B350A875A07F34
:0208600080A373
:10086200C29600D29600E4FFFEEF25E0FF3097012A
:0A0872000FC2B600D2B60EBE08EFAA
:01087C002259
:10087D00EF1F70011E144E600BE4FDEDC3946E501E
:04088D00EF0D80F7F4
:010891002244
:0300000002089261
:0C089200787FE4F6D8FD75812002080094
:00000001FF
