:10021400FC60DAF266B6BEE0FEF6EE3E9C7A9E8E96
:06000300010900010800E4
:10009A00120224E509FB7A007C277D10FF7E0012FC
:1000AA0001667E037FE8CFCDCFCECCCE1201667437
:1000BA00142FF58274023EF583E493F50A7C037DDE
:1000CA00E8AF037E001201667E007F64CFCDCFCEFB
:1000DA00CCCE12016674142FF58274023EF583E4C5
:1000EA0093F50BE50975F06484E5F075F00A8490E0
:1000FA00021493F50CE50975F00A84E5F093F50D01
:05010A0012010F808EC0
:0F022400758901758C3C758AB075A88AD28C22B9
:1001FE00EF1FAA0670011E4A600BE4FDEDC3946E5C
:05020E0050EE0D80F729
:0102130022C8
:03000B000201E10E
:0401E100C0E0C0D0EA
:1001E500758C3C758AB00508E508C39414400575FF
:0401F50008000509F0
:0501F900D0D0D0E0327F
:10010F00E4F5117FFF1201BBE4F511E51114601244
:10011F0014601714601C2403701EC2A4C2A3C2A2D1
:10012F008016C2A4C2A3D2A2800EC2A4D2A3C2A21E
:10013F008006C2A4D2A3D2A2740A2511F8E6FF1238
:10014F0001BB7F037E001201FE0511E511C394046C
:07015F0040B97FFF0201BB64
:1001BB00E4FEEFA806088002C333D8FC30E704D274
:1001CB00B48002C2B4C2B60000D2B60EBE08E3C2FF
:0501DB00B50000D2B5E3
:0101E00022FC
:0300000002000EED
:0C000E00787FE4F6D8FD758111020055E2
:10016600BC000BBE0029EF8DF084FFADF022E4CC7D
:10017600F875F008EF2FFFEE33FEEC33FCEE9DEC46
:10018600984005FCEE9DFE0FD5F0E9E4CEFD22ED8C
:10019600F8F5F0EE8420D21CFEADF075F008EF2FD6
:1001A600FFED33FD4007985006D5F0F222C398FDC7
:0501B6000FD5F0EA2264
:10001A0002009AE493A3F8E493A34003F68001F262
:10002A0008DFF48029E493A3F85407240CC8C333E7
:10003A00C4540F4420C8834004F456800146F6DFB6
:10004A00E4800B0102040810204080900003E47E43
:10005A00019360BCA3FF543F30E509541FFEE493AB
:10006A00A360010ECF54C025E060A840B8E493A372
:10007A00FAE493A3F8E493A3C8C582C8CAC583CA9D
:10008A00F0A3C8C582C8CAC583CADFE9DEE780BE55
:0100090000F6
:00000001FF
