:100ABB00FC60DAF266B6BEE0FEF6EE3E9C7A9E8EE7
:10080000E4F508F509120ACBE509FB7A007C277D9F
:1008100010FF7E0012090E7E037FE8CFCDCFCECC35
:10082000CE12090E74BB2FF582740A3EF583E49351
:10083000F50A7C037DE8AF037E0012090E7E007F7F
:1008400064CFCDCFCECCCE12090E74BB2FF58274FF
:100850000A3EF583E493F50BE50975F06484E5F051
:1008600075F00A84900ABB93F50CE50975F00A84CB
:10087000E5F093F50DE4F508740A2508F8E6F5802F
:10088000E50814601214601714601C2403701EC263
:10089000A4C2A3C2A28016C2A4C2A3D2A2800EC2C6
:1008A000A4D2A3C2A28006C2A4D2A3D2A27F027EF7
:1008B00000120A820508E508C3940440BBC3E51F83
:1008C0009414E51E94005003020808E4F51EF51F79
:1008D0000509E50964066003020808C2A9758702D4
:0308E00002080803
:0F0ACB00758901758C3C758AB075A887D28C220D
:100A8200EF1F70011E144E600BE4FDEDC3946E5017
:040A9200EF0D80F7ED
:010A9600223D
:03000B00020A974F
:100A9700C0E0758C3C758AB0051FE51F7002051E06
:030AA700D0E0326A
:03000300020AE608
:060AE600758700D2A93261
:03001300020AECF2
:060AEC00758700D2A9325B
:100A6C00D2A000D2A10000000000C2A00000000033
:060A7C0000C2A1000022EF
:100AAA00C2A000D2A10000000000D2A000000000F5
:010ABA002219
:1009BA00E4FEEFA806088002C333D8FC30E704D26D
:1009CA00A08002C2A000D2A10000000000C2A10EB5
:1009DA00BE08DF0000D2A00000D2A100000030A0B3
:0B09EA0004C2018002D201C2A1000083
:0109F50022DF
:100A3000E4FFD2A0FE00C2A10000000000D2A1008D
:100A400000EF25E0FF30A0010F00000EBE08E6C257
:030A5000A1000002
:010A53002280
:100A5400200004C2A08002D2A0000000D2A10000A5
:080A6400000000C2A100002205
:0209F600AE074A
:1009F800120A6C1209BA200102C322AF051209BA01
:100A0800200102C322E4FDEDC3951750161208E336
:100A1800FF1209BA200102C322740129F9E43AFA43
:070A28000D80E4120AAAD3BD
:010A2F0022A4
:02096300AC07DF
:10096500120A6C1209BA200102C322AF051209BA94
:10097500200102C322120A6CEC04FF1209BA2001FD
:1009850002C322E4FDE51D14FFEDC39F5016120AB4
:1009950030EF1208FCC200120A54740129F9E43A36
:1009A500FA0D80E1120A30EF1208FCD200120A5447
:0409B500120AAAD3A5
:0109B900221B
:03000000020ADA17
:0C0ADA00787FE4F6D8FD7581200208004A
:1008E300BB010689828A83E0225002E722BBFE0213
:0908F300E32289828A83E4932246
:1008FC00BB010689828A83F0225002F722BBFE01DB
:02090C00F322D4
:10090E00BC000BBE0029EF8DF084FFADF022E4CCCD
:10091E00F875F008EF2FFFEE33FEEC33FCEE9DEC96
:10092E00984005FCEE9DFE0FD5F0E9E4CEFD22EDDC
:10093E00F8F5F0EE8420D21CFEADF075F008EF2F26
:10094E00FFED33FD4007985006D5F0F222C398FD17
:05095E000FD5F0EA22B4
:00000001FF
