:100863000102040810204080FEFDFBF7EFDFBF7F8D
:1008730000007E42427E0000000000FFFF000000F7
:1008830000009E9292F200000000929292FE0000FD
:100893000000F01010FE00000000F292929E000093
:1008A3000000FE92929E00000000808080FE000007
:1008B3000000FE9292FE00000000F29292FE000001
:080943001208001208C380F83D
:10080000E4F5A0F5081209160508E508C3940840A8
:10081000F475A0FFE4F590F5081209160508E5083F
:10082000C3940840F47590FF7580FFE4F509E5096D
:1008300090086B93F5A012091E0509E509C39408F9
:1008400040EC75A0FFE4F509E50990086B93F5907D
:1008500012091E0509E509C3940840EC7590FFE4F0
:02086000F58021
:010862002273
:1008C300E4FFF9FEFDFC0EEEC39432400AE4FE0F92
:1008D300EF94084002E4FF0DED70010CC39420EC8B
:1008E300944E4009E4FCFD09E9940A5025EF900871
:1008F3006B93F5A0E975F008A42473F582E434083A
:10090300F583E5822FF582E43583F583E493F5805F
:0209130080B4AE
:0109150022BF
:0C091600E50890086393F5807FC87E0020
:10092200EF1F70011E144E600BE4FDEDC3946E5078
:04093200EF0D80F74E
:01093600229E
:03000000020937BB
:0C093700787FE4F6D8FD758109020943C1
:00000001FF
