:100977002052454D4F544520434F4E54524F4C2023
:1009870000202049522D434F44453A202D2D2D2D2F
:02099700480016
:10090000E4F51275A881758801D2B21209557F0AE3
:100910007E001209D3E4FF120A21E4F512E51290D9
:10092000097793FF600E1209B505127F327E00121F
:1009300009D380E97F40120A21E4F512E5129009FB
:100940008893FF600E1209B505127F327E001209EE
:05095000D380E980FEE8
:03000300020800F0
:10080000C0E0C0F0C083C082C0D075D000C000C0BE
:0D08100001C002C003C004C005C006C0073F
:10081D00751100C2A87F0A7E001209EC30B205D214
:10082D00A80208E520B2051209E880F830B20512D9
:10083D0009E880F8750F0075100020B2051209E85F
:10084D0080F830B2111209E80511E511C3941E406C
:10085D00F1D2A80208E57408250FF8C000E6C3130D
:10086D00D000F6E511C3940840097408250FF8E689
:10087D004480F67511000510E510C3940840BB05C2
:10088D000FE50FC3940440AFE50BF4650A6004D285
:10089D00A88045E50A540FF50DE50AC4540FF50E71
:1008AD00E50DD394094004743780027430250DF59D
:1008BD000DE50ED394094004743780027430250E73
:1008CD00F50E7F4B120A21AF0E1209997F4C120AB9
:0808DD0021AF0D120999D2A808
:1008E500D007D006D005D004D003D002D001D00067
:0B08F500D0D0D082D083D0F0D0E03211
:100A0100C2A6D2A5D2A700000000E580339201C2A0
:030A1100A7A20198
:010A140022BF
:10099900120A0140FBC2A6C2A5C2A700008F8000AF
:0C09A900000000D2A700000000C2A7223E
:070A2100EF4480FF02099978
:1009B500120A0140FBD2A6C2A5C2A78F8000000083
:0A09C50000D2A700000000C2A72224
:100955007F381209991209CF7F0C1209991209CF14
:100965007F061209991209CF7F011209997E0002AB
:0209750009D3A4
:0409CF007F017E0026
:1009D300EF1F70011E144E600BE4FDEDC3946E50C7
:0409E300EF0D80F79D
:0109E70022ED
:0409E8007F017E000D
:1009EC00EF1F70011E144E600BE4FDEDC3940D500F
:0409FC00EF0D80F784
:010A000022D3
:03000000020A15DC
:0C0A1500787FE4F6D8FD7581200209000E
:00000001FF
