:100A2800FC60DAF266B6BEE0FEF6EE3E9C7A9E8E7A
:100A170075A881758801D2B2AF127E0012080080D6
:010A2700F7D7
:04080000AB07AA0692
:10080400E4F51A7580FF7C277D10AF03AE02120950
:10081400937E037FE8CFCDCFCECCCE12099374283C
:100824002FF582740A3EF583E493F5087C037DE892
:10083400AF03AE021209937E007F64CFCDCFCECC3E
:10084400CE12099374282FF582740A3EF583E4933B
:10085400F5097C007D64AF03AE021209937E007F2C
:100864000ACFCDCFCECCCE12099374282FF5827443
:100874000A3EF583E493F50AAE02AF037C007D0AD9
:1008840012099374282DF582740A3CF583E493F5D8
:100894000BE4F51AE51A14601214601714601C2492
:1008A40003701EC2A4C2A3C2A28016C2A4C2A3D251
:1008B400A2800EC2A4D2A3C2A28006C2A4D2A3D292
:1008C400A27408251AF8E6F5807F067E00120A0253
:0908D400051AE51AC3940440BBA7
:0108DD0022F8
:030003000208DE12
:1008DE00C0E0C0F0C083C082C0D075D000C000C0E0
:0D08EE0001C002C003C004C005C006C00761
:1008FB00751900C2A87F057E001209EC30B204D234
:10090B00A8806A20B2051209E880F87517007518DF
:10091B000030B2051209E880F820B2051209E88010
:10092B00F830B2101209E80519E519C3941E40F10D
:10093B00D2A8803974102517F8C000E6C313D00075
:10094B00F6E519C39408400974102517F8E644809E
:10095B00F67519000518E518C3940840B40517E59A
:0D096B0017C3940440A8E513F46512D2A848
:10097800D007D006D005D004D003D002D001D000D3
:0B098800D0D0D082D083D0F0D0E0327D
:100A0200EF1F70011E144E600BE4FDEDC3946E5097
:040A1200EF0D80F76D
:010A160022BD
:0409E8007F017E000D
:1009EC00EF1FAA0670011E4A600BE4FDEDC3940DC7
:0509FC0050EE0D80F734
:010A010022D2
:03000000020A38B9
:0C0A3800787FE4F6D8FD75811A020A17D9
:10099300BC000BBE0029EF8DF084FFADF022E4CC48
:1009A300F875F008EF2FFFEE33FEEC33FCEE9DEC11
:1009B300984005FCEE9DFE0FD5F0E9E4CEFD22ED57
:1009C300F8F5F0EE8420D21CFEADF075F008EF2FA1
:1009D300FFED33FD4007985006D5F0F222C398FD92
:0509E3000FD5F0EA222F
:00000001FF
