:10091C0075E135C2907FF47E0112094ED2907FB8FA
:0A092C007E0B12094E75E13580F4D0
:10094E00EF1FAA0670011E4A600BE4FDEDC3946E04
:05095E0050EE0D80F7D2
:010963002271
:10096400D2A000D2A10000000000C2A0000000003C
:0609740000C2A1000022F8
:10097A00C2A000D2A10000000000D2A00000000026
:01098A00224A
:10085700E4FEEFA806088002C333D8FC30E704D2D1
:10086700A08002C2A000D2A10000000000C2A10E19
:10087700BE08DF0000D2A00000D2A100000030A017
:0B08870004C2018002D201C2A10000E7
:010892002243
:1008F800E4FFD2A0FE00C2A10000000000D2A100C7
:1009080000EF25E0FF30A0010F00000EBE08E6C290
:03091800A100003B
:01091B0022B9
:10093600200004C2A08002D2A0000000D2A10000C4
:08094600000000C2A100002224
:02089300AE07AE
:10089500120964120857200102C322AF0512085736
:1008A500200102C322E4FDEDC3950D50161208CDBB
:1008B500FF120857200102C322740129F9E43AFA0C
:0708C5000D80E412097AD353
:0108CC002209
:02080000AC0743
:10080200120964120857200102C322AF05120857C9
:10081200200102C322120964EC04FF1208572001CE
:1008220002C322E4FDE51314FFEDC39F5016120824
:10083200F8EF1208E6C200120936740129F9E43A07
:10084200FA0D80E11208F8EF1208E6D2001209361A
:0408520012097AD33A
:01085600227F
:0300000002098B67
:0C098B00787FE4F6D8FD75812002091C7D
:1008CD00BB010689828A83E0225002E722BBFE0229
:0908DD00E32289828A83E493225C
:1008E600BB010689828A83F0225002F722BBFE01F1
:0208F600F322EB
:00000001FF
