:100B77002020202043594D4F4D45544552202020D9
:100B870000465245513A2020202020202020487A34
:020B970020003C
:090C4200C10002090000010800D4
:1009720075B0FF120B55E4FF120C4CE4F513E513AE
:10098200900B7793FF120BEE0513E513C3941040FF
:10099200ED7F40120C4CE4F513E513900B8893FFA6
:1009A200120BEE0513E513C3941040ED120BD43075
:1009B2000063858D14858B15AE09AF0AE4FCFD7BBF
:1009C200FF7AFFF9F8120855A804A905AA06AB0791
:1009D200E514FEE4FCFD2BFBEA3EFAED39F9EC38B6
:1009E200F8E4FEEB2515FFEE3AFEED39FDEC38FC9E
:1009F200E47B6CFAF9F8120855E47B64FAF9F81210
:100A02000B118E168F17E4F58DF58BC200F509F5E3
:0E0A12000AD28ED28CAF17AE16120AAC8091AB
:100BD400758951758C4CE4F58AF58DF58BD2A9D2C3
:0A0BE400ABD2AFD2BBD28CD28E226E
:03000B00020B994C
:040B9900C0E0C0D028
:100B9D00758C4C758A000508E508B41409C28CC221
:060BAD008E750800D20065
:050BB300D0D0D0E032BB
:03001B00020C359F
:0D0C3500C0E0050AE50A70020509D0E032B2
:040AAC00AB07AA06E4
:100AB000E4F5187C007D0AAF03AE02120800ED24B5
:100AC00030FF740B2518F8A6077C007D0AAF03AE33
:100AD00002120800AA06AB070518E518B405D4EB06
:100AE0002430F510751805740B2518F8E6B4300598
:100AF0007620D518F27F46120C4C751805E518F4CF
:100B0000600E740B2518F8E6FF120BEE151880ED39
:010B100022C2
:100C2100C2A6D2A5D2A700000000E580339201C27E
:030C3100A7A20176
:010C3400229D
:100BB800120C2140FBC2A6C2A5C2A700008F80006C
:0C0BC800000000D2A700000000C2A7221D
:070C4C00EF4480FF020BB82A
:100BEE00120C2140FBD2A6C2A5C2A78F8000000026
:0A0BFE0000D2A700000000C2A722E9
:100B55007F38120BB8120C087F0C120BB8120C0858
:100B65007F06120BB8120C087F01120BB87E00022B
:020B75000C0C66
:040C08007F017E00EA
:100C0C00EF1F70011E144E600BE4FDEDC3946E508B
:040C1C00EF0D80F761
:010C200022B1
:050C530000000000227A
:03000000020A20D1
:0C0A2000787FE4F6D8FD758120020A679B
:10080000BC000BBE0029EF8DF084FFADF022E4CCDC
:10081000F875F008EF2FFFEE33FEEC33FCEE9DECA5
:10082000984005FCEE9DFE0FD5F0E9E4CEFD22EDEB
:10083000F8F5F0EE8420D21CFEADF075F008EF2F35
:10084000FFED33FD4007985006D5F0F222C398FD26
:050850000FD5F0EA22C3
:10085500E88FF0A4CC8BF0A42CFCE98EF0A42CFC42
:100865008AF0EDA42CFCEA8EF0A4CDA8F08BF0A4C0
:100875002DCC3825F0FDE98FF0A42CCD35F0FCEB1F
:100885008EF0A4FEA9F0EB8FF0A4CFC5F02ECD39E4
:0F089500FEE43CFCEAA42DCE35F0FDE43CFC2251
:100B1100C2D5E830E70FB2D5E4C39BFBE49AFAE40F
:100B210099F9E498F8EC30E717B2D5120B4712089F
:100B3100E0E4C39BFBE49AFAE499F9E498F88003B2
:100B41001208E030D50DE4C39FFFE49EFEE49DFD55
:040B5100E49CFC2202
:100A2C00020972E493A3F8E493A34003F68001F265
:100A3C0008DFF48029E493A3F85407240CC8C333CB
:100A4C00C4540F4420C8834004F456800146F6DF9A
:100A5C00E4800B0102040810204080900C42E47EDC
:100A6C00019360BCA3FF543F30E509541FFEE4938F
:100A7C00A360010ECF54C025E060A840B8E493A356
:100A8C00FAE493A3F8E493A3C8C582C8CAC583CA81
:100A9C00F0A3C8C582C8CAC583CADFE9DEE780BE39
:010C4B0000A8
:1008A40075F008758200EF2FFFEE33FECD33CDCC0B
:1008B40033CCC58233C5829BED9AEC99E58298408E
:1008C4000CF582EE9BFEED9AFDEC99FC0FD5F0D66B
:1008D400E4CEFBE4CDFAE4CCF9A88222B800C1B995
:1008E4000059BA002DEC8BF084CFCECDFCE5F0CBD3
:1008F400F97818EF2FFFEE33FEED33FDEC33FCEB0C
:1009040033FB10D703994004EB99FB0FD8E5E4F9C6
:10091400FA227818EF2FFFEE33FEED33FDEC33FCB3
:10092400C933C910D7059BE99A4007EC9BFCE99AA7
:10093400F90FD8E0E4C9FAE4CCFB2275F010EF2FEC
:10094400FFEE33FEED33FDCC33CCC833C810D707EC
:100954009BEC9AE899400AED9BFDEC9AFCE899F827
:0E0964000FD5F0DAE4CDFBE4CCFAE4C8F922BA
:00000001FF
