:100853007590FFE590F4600F7F057E0012086BE54D
:0808630090F4600312064D221F
:10064D00E590B4FE15E513C3940840061206A2E426
:10065D00F513C28C3090FD020591E590B4FD0AE5CD
:10066D001360313091FD02000EE590B4FB08C28C91
:10067D003092FD0203D8E590B4EF0AE51360153012
:10068D0094FD0207BFE590B4DF0AE51360063095CF
:05069D00FD1201232203
:1008D000202020416C61726D2020536574202020FF
:0108E0000017
:1007970001130001111401120D01080201101101CA
:1007A7000C05010E0C010F00010D00010906010ADD
:0407B70005010B0429
:10088100C2A6D2A5D2A700000000E580339201C222
:03089100A7A2011A
:010894002241
:1008040012088140FBC2A6C2A5C2A700008F8000C7
:0C081400000000D2A700000000C2A722D4
:07000300EF4480FF02080436
:1008200012088140FBD2A6C2A5C2A78F800000009B
:0A08300000D2A700000000C2A722BA
:10073600E4F5257F381208047F017E0012086B7FDE
:100746000C1208047F017E0012086B7F0612080453
:100756007F017E0012086B7F011208047F0A7E006B
:0907660012086B1204520206A2F3
:100591007F0F1208047F017E0012086B0513E5131B
:1005A100C394084003751301E51314B407005040C8
:1005B1009005BF75F003A4C58325F0C583730205BB
:1005C100D40205D80205DC0205E00205E40205E8D3
:1005D1000205EC7F0480167F0780127F0A800E7F60
:1005E1000E800A7F4280067F4580027F4812000309
:0105F10022E7
:10000E00E51314B40A00400302011790002775F09F
:10001E0003A4C58325F0C5837302004502005F0269
:10002E00007402008902009E0200B20200C60200A5
:10003E00DA0200EE0201020512C3E512648094E4B6
:10004E004008E4F512051112076FAD127F0302018D
:10005E00140508C3E5086480948D4003750801AD4E
:10006E00087F060201140510C3E510648094A040B9
:10007E0003751001AD107F09020114050CC3E50CC8
:10008E00648094884003750C01AF0C12023880799D
:10009E00050EC3E50E648094984003E4F50EAD0E94
:1000AE007F418062050FC3E50F648094BC4003E47A
:1000BE00F50FAD0F7F44804E050DC3E50D648094A2
:1000CE00BC4003E4F50DAD0D7F47803A0509C3E54D
:1000DE0009648094984003E4F509AD097F418026B8
:1000EE00050AC3E50A648094BC4003E4F50AAD0A30
:1000FE007F448012050BC3E50B648094BC4003E47F
:10010E00F50BAD0B7F471207737F101208047F03A8
:05011E007E0002086BE9
:1003D800E513C3940850407F01120804E4F513E5BF
:1003E800139008D093FF600E12082005137F027E39
:1003F8000012086B80E9AD097F411207737F3A123A
:100408000820AD0A7F441207737F3A120820AD0B0B
:100418007F4712077380090513E513C3940B400344
:100428007513087F0F1208047F147E0012086BE50D
:100438001324F7600B14600C2402700D7F428006B1
:0A0448007F4580027F481200032266
:1007BF007F0C1208047F017E0012086B1206A2E55F
:1007CF0013C3940840051204C28003120356E4F5C4
:0407DF0013D28C2283
:10012300E51314B40A00400302022C90013C75F05D
:1001330003A4C58325F0C5837302015A0201740227
:10014300018902019E0201B30201C70201DB020120
:10015300EF0202030202171512C3E51264809480B2
:100163005008751263151112076FAD127F03020257
:10017300291508C3E50864809481500375080CAD04
:10018300087F060202291510C3E51064809481508C
:100193000375101FAD107F09020229150CC3E50C6E
:1001A300648094815003750C07AF0C120238807978
:1001B300150EC3E50E648094805003750E17AD0EC3
:1001C3007F418062150FC3E50F64809480500375EF
:1001D3000F3BAD0F7F44804E150DC3E50D64809436
:1001E300805003750D3BAD0D7F47803A1509C3E57C
:1001F30009648094805003750917AD097F418026F7
:10020300150AC3E50A648094805003750A3BAD0A5E
:100213007F448012150BC3E50B64809480500375F3
:100223000B3BAD0B7F471207737F101208047F034C
:050233007E0002086BD3
:04076F00AD117F0148
:02077300AE05D1
:10077500E4F526FC120003EE75F00A84E5F024305A
:10078500FCEE75F00A842430FEFF120820AF040247
:0207950008203A
:10023800AE077F0C120003EE14B40700400302025D
:10024800C990025775F003A4C58325F0C5837302CE
:10025800026C02027502028302029002029E0202EE
:10026800AC0202BA7F4D1208207F6F80157F5412AE
:1002780008207F751208207F6580437F5712082069
:100288007F651208201F80367F541208207F68126D
:1002980008207F7580287F461208207F7212082068
:1002A8007F69801A7F531208207F611208207F74AB
:1002B800800C7F531208207F751208207F6E120869
:0202C8002022F2
:1006A2007F011208040F7E0012086B12076FAD1251
:1006B2007F031207737F2D120820AD087F061207F1
:1006C200737F2D120820AD107F09120773AF0C1231
:1006D2000238AD0E7F411207737F3A120820AD0F28
:1006E2007F441207737F3A120820AD0D7F4702073D
:0106F2007394
:0B08F0001208E112073612085380FBCB
:10086B00EF1FAA0670011E4A600BE4FDEDC3946EE8
:05087B0050EE0D80F7B6
:010880002255
:1008A90080828486888A8CC0C2C481838587898B2B
:0408B9008DC1C3C565
:0307BB0001140026
:100452007527FF7528087529B3E4F526AB27AA2866
:10046200A92912083AFF1206F374152526F8A607E1
:1004720074012529F529E43528F52874152526F86F
:10048200E6FFC4540FFEEF540FFFEE75F00AA42FDF
:10049200FF74152526F8A6070526E526C3940A400B
:1004A200BB85150D85160F85170E85181085190841
:0F04B200851A0C851B12851C09851D0A851E0BDA
:0104C1002218
:10035600850D15850F16850E1785101885081985C4
:100366000C1A85121B85091C850A1D850B1EE4F5D2
:100376002574152525F8E6FF75F00A84FEEF75F05D
:100386000A84EEC454F025F0F60525E525B40AE105
:10039600E4FD7F8E1208957526FF7527087528A936
:1003A600E4F525AB26AA27A92812083AFF741525D5
:1003B60025F8E6FD12089574012528F528E4352769
:1003C600F5270525E525C3940A40D87D807F8E0252
:0203D600089588
:1005F200752BFF752C08752DBA752A07AB2BAA2C03
:10060200A92D12083AFF1206F37415252AF8A60737
:100612007401252DF52DE4352CF52C7415252AF8B9
:10062200E6FFC4540FFEEF540FFFEE75F00AA42F3D
:10063200FF7415252AF8A607052AE52AC3940A405D
:0A064200BB851C09851D0A851E0BEF
:01064C00228B
:1004C20085091C850A1D850B1E75250774152525B2
:1004D200F8E6FF75F00A84FEEF75F00A84EEC45464
:1004E200F025F0F60525E525B40AE1E4FD7F8E123C
:1004F20008957526FF7527087528B0752507AB2660
:10050200AA27A92812083AFF74152525F8E6FD1234
:10051200089574012528F528E43527F5270525E5F2
:0D05220025C3940A40D87D807F8E02089585
:0F08E100758901758C3C758AB075A882D28C22FE
:1007E300C28C7590FFE590B4FF14C2B07F057E0004
:1007F30012086BD2B07F057E0012086B80E7D28CA3
:0108030022D2
:03000B0002052FBC
:10052F00C0E0C0F0C083C082C0D075D000C000C092
:0D053F0001C002C003C004C005C006C00713
:10054C00758C3C758AB00514E514C39414401B7566
:10055C0014001204521206A2E50DB50B0DE50FB5F1
:0A056C000A08E50EB509031207E3C3
:10057600D007D006D005D004D003D002D001D000D9
:0B058600D0D0D082D083D0F0D0E03283
:1008BD00E4FEC2B6EF1392B4EFC313FFD2B60EBE71
:0208CD0008F031
:0108CF002206
:10089500C2B500C2B600D2B5001208BDAF05120838
:0408A500BDC2B522F9
:1006F300E4FDC2B50000C2B60000D2B50000120886
:10070300BDE4FF30B403430580C2B6EDC313FD005F
:100713000000D2B60FBF08EBC2B50000C2B5C2B627
:1007230000000000D2B60000C2B40000D2B4000042
:02073300AF0510
:0107350022A1
:030000000202CA2F
:0C02CA00787FE4F6D8FD75812D02031149
:10083A00BB010689828A83E0225002E722BBFE02BC
:09084A00E32289828A83E49322EF
:1002D6000208F0E493A3F8E493A34003F68001F246
:1002E60008DFF48029E493A3F85407240CC8C33329
:1002F600C4540F4420C8834004F456800146F6DFF8
:10030600E4800B0102040810204080900797E47EE9
:10031600019360BCA3FF543F30E509541FFEE493EC
:10032600A360010ECF54C025E060A840B8E493A3B3
:10033600FAE493A3F8E493A3C8C582C8CAC583CADE
:10034600F0A3C8C582C8CAC583CADFE9DEE780BE96
:0107BE00003A
:00000001FF
