:100AE100FC60DAF266B6BEE0FEF6EE3E9C7A9E8EC1
:060AF100011100011200DA
:10080000E4F508120AB5AE13AF147C277D10120A66
:100810001A7E037FE8CFCDCFCECCCE120A1A74E178
:100820002FF582740A3EF583E493F509AE13AF14F5
:100830007C037DE8120A1A7E007F64CFCDCFCECC38
:10084000CE120A1A74E12FF582740A3EF583E493FE
:10085000F50AAE13AF147C007D64120A1A7E007F85
:100860000ACFCDCFCECCCE120A1A74E12FF5827406
:100870000A3EF583E493F50BAE13AF147C007D0ABA
:10088000120A1A74E12DF582740A3CF583E493F59B
:100890000CAE15AF167C277D10120A1A7E037FE876
:1008A000CFCDCFCECCCE120A1A74E12FF582740AC6
:1008B0003EF583E493F50DAE15AF167C037DE8128B
:1008C0000A1A7E007F64CFCDCFCECCCE120A1A7426
:1008D000E12FF582740A3EF583E493F50EAE15AF71
:1008E000167C007D64120A1A7E007F0ACFCDCFCE1F
:1008F000CCCE120A1A74E12FF582740A3EF583E415
:1009000093F50FAE15AF167C007D0A120A1A74E13A
:100910002DF582740A3CF583E493F510E4F5087430
:10092000092508F8E6F580E508B40800504D90095F
:1009300035F828287302094D0209510209550209A8
:100940005902095D02096502096D020975C2A48098
:100950000EC2A48012C2A48016C2A4801AD2A4C25D
:10096000A3C2A28016D2A4C2A3D2A2800ED2A4D2C5
:10097000A3C2A28006D2A4D2A3D2A27F027E00127A
:0E0980000ACC0508E508C39408409402080656
:100AB500E4F589758CE0758DE0758A18758B187568
:070AC500A88AD28CD28E2218
:100ACC00EF1F70011E144E600BE4FDEDC3946E50CD
:040ADC00EF0D80F7A3
:010AE00022F3
:03000B00020A6F77
:040A6F00C0E0C0D053
:100A7300758CE0758A180511E511C39464400B75F4
:0A0A830011000514E51470020513BC
:050A8D00D0D0D0E032E2
:03001B00020A9244
:040A9200C0E0C0D030
:100A9600758DE0758B180512E512C394C8400B7569
:0A0AA60012000516E5167002051592
:050AB000D0D0D0E032BF
:0300000002098E64
:0C098E00787FE4F6D8FD7581160209D5CB
:100A1A00BC000BBE0029EF8DF084FFADF022E4CCC0
:100A2A00F875F008EF2FFFEE33FEEC33FCEE9DEC89
:100A3A00984005FCEE9DFE0FD5F0E9E4CEFD22EDCF
:100A4A00F8F5F0EE8420D21CFEADF075F008EF2F19
:100A5A00FFED33FD4007985006D5F0F222C398FD0A
:050A6A000FD5F0EA22A7
:10099A00020800E493A3F8E493A34003F68001F26B
:1009AA0008DFF48029E493A3F85407240CC8C3335E
:1009BA00C4540F4420C8834004F456800146F6DF2D
:1009CA00E4800B0102040810204080900AF1E47EC2
:1009DA00019360BCA3FF543F30E509541FFEE49322
:1009EA00A360010ECF54C025E060A840B8E493A3E9
:1009FA00FAE493A3F8E493A3C8C582C8CAC583CA14
:100A0A00F0A3C8C582C8CAC583CADFE9DEE780BECB
:010AF70000FE
:00000001FF
