:100AB600FC60DAF266B6BEE0FEF6EE3E9C7A9E8EEC
:080AC600021100000213000000
:10080000E4F5087580FF7590FF75A0FFD288D2A827
:10081000D28AD2AAD2AFAE11AF127C277D10120AB3
:100820002A7E037FE8CFCDCFCECCCE120A2A74B673
:100830002FF582740A3EF583E493F509AE11AF12E9
:100840007C037DE8120A2A7E007F64CFCDCFCECC18
:10085000CE120A2A74B62FF582740A3EF583E49309
:10086000F50AAE11AF127C007D64120A2A7E007F69
:100870000ACFCDCFCECCCE120A2A74B62FF5827411
:100880000A3EF583E493F50BAE11AF127C007D0AAE
:10089000120A2A74B62DF582740A3CF583E493F5A6
:1008A0000CAE13AF147C277D10120A2A7E037FE85A
:1008B000CFCDCFCECCCE120A2A74B62FF582740AD1
:1008C0003EF583E493F50DAE13AF147C037DE8127F
:1008D0000A2A7E007F64CFCDCFCECCCE120A2A74F6
:1008E000B62FF582740A3EF583E493F50EAE13AF8E
:1008F000147C007D64120A2A7E007F0ACFCDCFCE01
:10090000CCCE120A2A74B62FF582740A3EF583E41F
:1009100093F50FAE13AF147C007D0A120A2A74B649
:100920002DF582740A3CF583E493F510E4F5087420
:10093000092508F8E6F580E508B40800504D90094F
:1009400045F828287302095D020961020965020958
:100950006902096D02097502097D020985C2A48038
:100960000EC2A48012C2A48016C2A4801AD2A4C24D
:10097000A3C2A28016D2A4C2A3D2A2800ED2A4D2B5
:10098000A3C2A28006D2A4D2A3D2A27F027E00126A
:0E0990000A7F0508E508C39408409402081683
:100A7F00EF1F70011E144E600BE4FDEDC3946E501A
:040A8F00EF0D80F7F0
:010A93002240
:03000300020A945A
:100A9400C0E0C2A80512E51270020511D2A8D0E088
:010AA400321F
:03001300020AA539
:100AA500C0E0C2AA0514E51470020513D2AAD0E06D
:010AB500320E
:0300000002099E54
:0C099E00787FE4F6D8FD7581140209E5AD
:100A2A00BC000BBE0029EF8DF084FFADF022E4CCB0
:100A3A00F875F008EF2FFFEE33FEEC33FCEE9DEC79
:100A4A00984005FCEE9DFE0FD5F0E9E4CEFD22EDBF
:100A5A00F8F5F0EE8420D21CFEADF075F008EF2F09
:100A6A00FFED33FD4007985006D5F0F222C398FDFA
:050A7A000FD5F0EA2297
:1009AA00020800E493A3F8E493A34003F68001F25B
:1009BA0008DFF48029E493A3F85407240CC8C3334E
:1009CA00C4540F4420C8834004F456800146F6DF1D
:1009DA00E4800B0102040810204080900AC6E47EDD
:1009EA00019360BCA3FF543F30E509541FFEE49312
:1009FA00A360010ECF54C025E060A840B8E493A3D9
:100A0A00FAE493A3F8E493A3C8C582C8CAC583CA03
:100A1A00F0A3C8C582C8CAC583CADFE9DEE780BEBB
:010ACE000027
:00000001FF
