:100C1500FC60DAF266B6BEE0FEF6EE3E9C7A9E8E8B
:10080000E4F5087D427F90120BA17F90120B7F755B
:1008100011008F127D437F90120BA17F90120B7FEE
:10082000AB077A00AE11AF127C277D101209D77E7C
:10083000037FE8CFCDCFCECCCE1209D774152FF5DC
:1008400082740C3EF583E493F509AE11AF127C037C
:100850007DE81209D77E007F64CFCDCFCECCCE12FB
:1008600009D774152FF582740C3EF583E493F50ACD
:10087000AE11AF127C007D641209D77E007F0ACFD3
:10088000CDCFCECCCE1209D774152FF582740C3E85
:10089000F583E493F50BAE11AF127C007D0A1209CB
:1008A000D774152DF582740C3CF583E493F50C7C1C
:1008B000277D10AF037E001209D77E037FE8CFCDDE
:1008C000CFCECCCE1209D774152FF582740C3EF51D
:1008D00083E493F50D7C037DE8AF037E001209D716
:1008E0007E007F64CFCDCFCECCCE1209D774152F2A
:1008F000F582740C3EF583E493F50E7C007D64AFC5
:10090000037E001209D77E007F0ACFCDCFCECCCE9A
:100910001209D774152FF582740C3EF583E493F514
:100920000F7E00AF037C007D0A1209D774152DF5E8
:1009300082740C3CF583E493F510E4F50874092502
:1009400008F8E6F580E508B40800504D900953F822
:1009500028287302096B02096F02097302097702E2
:10096000097B02098302098B020993C2A4800EC28B
:10097000A48012C2A48016C2A4801AD2A4C2A3C2A8
:10098000A28016D2A4C2A3D2A2800ED2A4D2A3C2A5
:10099000A28006D2A4D2A3D2A27F027E00120BEFC5
:0C09A0000508E508C39408409402080311
:100B2F008F1B8D1C8B1D120BD9AF1B120AB9200006
:100B3F0002C322AF1C120AB9200002C322AF1D123A
:0C0B4F000AB9200002C322120C04D322B9
:100BA1008F138D14120BD9AF13120AB9200002C38F
:100BB10022AF14120AB9200002C322120C04D3225C
:020B7F008F13D2
:100B8100120BD9E51304FF120AB92000037F0022DA
:0F0B9100120B5B8F14D201120BC1120C04AF14A4
:010BA0002232
:100BEF00EF1F70011E144E600BE4FDEDC3946E50A9
:040BFF00EF0D80F77F
:010C030022CE
:100BD900D2A000D2A10000000000C2A000000000C5
:060BE90000C2A100002281
:100C0400C2A000D2A10000000000D2A00000000099
:010C140022BD
:100AB900E4FEEFA806088002C333D8FC30E704D26D
:100AC900A08002C2A000D2A10000000000C2A10EB5
:100AD900BE08DF0000D2A00000D2A100000030A0B3
:0B0AE90004C2008002D200C2A1000085
:010AF40022DF
:100B5B00E4FFD2A0FE00C2A10000000000D2A10061
:100B6B0000EF25E0FF30A0010F00000EBE08E6C22B
:030B7B00A10000D6
:010B7E002254
:100BC100200104C2A08002D2A0000000D2A1000036
:080BD100000000C2A100002297
:020AF500AE074A
:100AF700120BD9120AB9200002C322AF05120AB994
:100B0700200002C322E4FDEDC3951A50161209AC6A
:100B1700FF120AB9200002C322740129F9E43AFA44
:070B27000D80E4120C04D361
:010B2E0022A4
:020A6200AC07DF
:100A6400120BD9120AB9200002C322AF05120AB927
:100A7400200002C322120BD9EC04FF120AB9200091
:100A840002C322E4FDE52614FFEDC39F5016120BAA
:100A94005BEF1209C5C201120BC1740129F9E43AD2
:100AA400FA0D80E1120B5BEF1209C5D201120BC1E2
:040AB400120C04D349
:010AB800221B
:03000000020C25CA
:0C0C2500787FE4F6D8FD758126020800F7
:1009AC00BB010689828A83E0225002E722BBFE0249
:0909BC00E32289828A83E493227C
:1009C500BB010689828A83F0225002F722BBFE0111
:0209D500F3220B
:1009D700C2D5EC30E709B2D5E4C39DFDE49CFCEE3B
:1009E70030E715B2D5E4C39FFFE49EFE120A0DC39C
:1009F700E49DFDE49CFC8003120A0D30D507C3E497
:060A07009FFFE49EFE22A9
:100A0D00BC000BBE0029EF8DF084FFADF022E4CCCD
:100A1D00F875F008EF2FFFEE33FEEC33FCEE9DEC96
:100A2D00984005FCEE9DFE0FD5F0E9E4CEFD22EDDC
:100A3D00F8F5F0EE8420D21CFEADF075F008EF2F26
:100A4D00FFED33FD4007985006D5F0F222C398FD17
:050A5D000FD5F0EA22B4
:00000001FF
